:020000040800F2
:1000000060AF00209D0100089B7A000809350008B8
:10001000997A00083F0E00084D8A00080000000091
:10002000000000000000000000000000B97C000893
:100030001915000800000000397C0008BD80000888
:10004000B7010008B7010008B7010008B7010008B0
:10005000B7010008B7010008B7010008B7010008A0
:100060001B1500082115000827150008B701000816
:10007000B7010008B7010008B7010008B701000880
:10008000B7010008B7010008D10B0008B70100084C
:10009000B7010008B7010008B7010008B701000860
:1000A000B7010008B7010008B7010008B701000850
:1000B0009D810008A9810008B7010008B701000868
:1000C000B7010008B7010008B7010008B701000830
:1000D000B7010008F9870008B7010008B701000858
:1000E000B7010008B7010008B7010008B701000810
:1000F000B7010008B7010008B7010008B701000800
:10010000B7010008B7010008B7010008B7010008EF
:10011000B7010008B7010008B7010008B7010008DF
:100120003914000845140008511400085D14000833
:10013000B7010008B7010008B7010008B7010008BF
:10014000B7010008B7010008B7010008B7010008AF
:10015000B7010008B701000869140008B7010008DA
:10016000B7010008B7010008B7010008B70100088F
:10017000B7010008B7010008B7010008000000003F
:10018000B7010008B7010008DFF80CD000F036FC1A
:1001900000480047ED97000860AF00200648804700
:1001A00006480047FEE7FEE7FEE7FEE7FEE7FEE75C
:1001B000FEE7FEE7FEE7FEE7498100088901000847
:1001C0002DE9F05F0546002092469B46884606468C
:1001D000814640241BE0284641464746224600F01F
:1001E000B6FA53465A46C01A914110D311461846E2
:1001F000224600F09DFA2D1A67EB01084F46224671
:100200000120002100F094FA17EB00094E41201E56
:10021000A4F10104DFDC484631462A464346BDE8E6
:10022000F09FD2B201E000F8012B491EFBD27047CB
:100230000022F6E710B513460A4604461946FFF7B2
:10024000F0FF204610BD421C10F8011B0029FBD115
:10025000801A704730B504460020034600E05B1C5E
:10026000934203D2E05CCD5C401BF8D030BD70B54A
:10027000064608F011FC046805460A2200213046B3
:1002800000F087FA2C6070BD2DE9FE4F804681EAB0
:100290000300C00F0C46009021F0004123F0004500
:1002A000B8EB0200A94105D24046214690461C46C3
:1002B0000B46024623F00040104347D0270DC7F3FA
:1002C0000A00C3F30A510290401A019040286BDAE9
:1002D000C3F3130040F4801B0098924620B1002322
:1002E000D2EB030A63EB0B0B01985946C0F14002B5
:1002F000504600F01DFA06460D4650465946019AF2
:1003000000F035FA10EB08006141002487EA115231
:1003100084EAE7731A4340D0009A62B3019A012A33
:100320004FEA075215DC001B61EB02014FF000425F
:1003300002EA0752CDE90042001C41F58011324625
:100340002B4600F0A4FA03B0BDE8F08F40462146EA
:10035000F9E7001B61EB0201001C41F58013001856
:100360005B412018A2F5001747EB030140EAD57066
:10037000B6196D4111E06D084FEA360645EAC075C1
:100380004FEA0752001B61EB0201001C41F580118E
:1003900049084FEA30000019514132462B4603B05C
:1003A000BDE8F04F00F064BA00980122400000233D
:1003B000D0EB020263EBE073009821464FEAE07451
:1003C000B8EB000061EB0401E9E783F000435BE771
:1003D00081F0004158E72DE9FE4F81EA030404F063
:1003E000004421F0004100944FF0000B23F0004343
:1003F00050EA01045ED052EA03045BD0C3F30A540E
:10040000C1F30A552C44A4F2F3340194A0FB025426
:10041000C1F3130141F48011C3F3130343F48013B8
:1004200001FB024400FB034E840A970A44EA81540C
:1004300047EA8357A4FB076802958D0A05FB0785E9
:100440004FEA932C04FB0C542705029D4FEA0658F3
:1004500047EA1637B5EB08056EEB070C870E920ED0
:1004600047EA811742EA8312A7FB0201B6EB0B01B0
:1004700064EB00042B0D43EA0C335E1844EB1C5074
:10048000DA465146E7FB0201C5F313044FEA0B338A
:1004900043EA14534FEA0432019C43EA0603A4F1F1
:1004A0000C040294009CCDE900B400F0F0F903B014
:1004B000BDE8F08F00200146F9E72DE9F04D81EA13
:1004C000030404F0004B21F0004514464FF0000AED
:1004D00023F0004150EA050220D054EA01021DD069
:1004E000C5F30A570246C5F31303C1F31300C1F362
:1004F0000A5640F4801543F48013A7EB0608101B3E
:10050000D64608F2FD3873EB050002D308F1010866
:1005100001E092185B41B8F1000F03DA00200146B8
:10052000BDE8F08D00204FF48011064684460EE0B1
:10053000171B73EB050705D3121B63EB050306437B
:100540004CEA010C49084FEA300092185B4150EA2E
:100550000107EDD152EA030012D082EA040083EAD7
:100560000501084305D0101BAB4106D20122002330
:1005700006E000224FF0004302E06FF0010253104A
:100580001AEB06004CEB085110EB0A0041EB0B0193
:10059000BDE8F04D00F06CB90EB5C10F80EAE07017
:1005A0000844CA07002140F233438DE80E000A4692
:1005B0000B4600F06CF903B000BD0EB540F23341BC
:1005C00002910021CDE900110A460B4600F05FF9C7
:1005D00003B000BD70B5C1F30A5201F0004500241C
:1005E000C1F3130140F2FF3341F480119A4201DA62
:1005F000002070BD40F233439A42A2F2334203DC42
:10060000524200F0A4F800E090402C43F1D0404268
:1006100070BDC1F30A5210B5C1F3130140F2FF33AC
:1006200041F480119A4201DA002010BD40F23343B8
:100630009A42A2F2334203DC524200F088F810BD25
:10064000904010BD00F0004230F000400AD0C10DD3
:1006500001F56071C0F3160042EA0151C20840077B
:1006600011437047002001467047000030B5041E5A
:1006700071F1000404DB4FF00044404264EB0101DF
:10068000141E73F1000405DB1C464FF00043524278
:1006900063EB04038B4208BF824230BD30B5041EB9
:1006A00071F1000404DB4FF00044404264EB0101AF
:1006B000141E73F1000405DB1C464FF00043524248
:1006C00063EB0403994208BF904230BD01F0004340
:1006D00030B421F0004150EA010206D00A0DA2F523
:1006E0006072C1F31301002A02DC30BC00207047A5
:1006F000440F44EAC104C100E01830BC00EBC25012
:1007000000F07FB830B50B460146002020220124BE
:1007100009E021FA02F59D4205D303FA02F5491BCF
:1007200004FA02F52844151EA2F10102F1DC30BDE5
:10073000202A04DB203A00FA02F1002070479140A1
:10074000C2F1200320FA03F3194390407047202A96
:1007500004DB203A21FA02F00021704721FA02F36B
:10076000D040C2F120029140084319467047202A28
:1007700006DBCB17203A41FA02F043EAE07306E0C9
:1007800041FA02F3D040C2F12002914008431946D9
:1007900070472DE9F04791460F46804604460026F3
:1007A00014F8015B2DB100F03BF90068405DC00713
:1007B000F6D12B2D02D02D2D18D0641E4A46394675
:1007C000204600F031F927B13968A14201D1C7F8BC
:1007D000008071054FF002040BD54042002803DD74
:1007E00008F05AF90460A007BDE8F08746F4806677
:1007F000E4E70028F8DA08F04FF904606FF00040F1
:10080000F2E70029A8BF7047401C490008BF20F04C
:100810000100704710B4B0FA80FC00FA0CF050EA06
:10082000010404BF10BC704749B1CCF1200421FA87
:1008300004F411FA0CF118BF012121430843A3EB82
:100840000C01CB1D4FEA00614FEA102042BF00208F
:1008500010BC704700EBC35010440029A4BF10BC6B
:100860007047401C490008BF20F0010010BC7047D1
:1008700010B5141E73F1000408DA401C41F10001A8
:1008800092185B411A4301D120F0010010BD2DE9FF
:10089000F04D92469B4611B1B1FA81F202E0B0FAF6
:1008A00080F220329046FFF743FF04460F4640EAAD
:1008B0000A0041EA0B0153465A46084313D0114639
:1008C00053EA010019D0C8F140025046FFF73FFF3C
:1008D00005460E46504659464246FFF729FF084353
:1008E00005D0012004E020463946BDE8F08D002007
:1008F000054346EAE0762C4337430A986305E40A49
:10090000A0EB08000022FD0A44EA47540A3002D551
:1009100000200146E9E7010510196941DDE90845B4
:1009200000196941BDE8F04DA2E72DE9F04D002323
:100930001A461B1A8A4103DB00200146BDE8F08DF0
:10094000C1F30A52C1F3130141F480154FF0000BBB
:10095000D10702D100186D41521E0027044640F213
:10096000FF11384601EB620A3E46804602460020EF
:100970004FF48011FFF7EBFEC2197141BB1846EB33
:100980000100B4EB030C75EB000C04D3E41A65EB27
:10099000000517460E46241908F101006D418046F6
:1009A0003428E3DDF91946EB0600091BA84103D200
:1009B0004FF0FF32134601E0002213461BEB070005
:1009C00046EB0A51BDE8F04DFFF752BFC1F30A52A2
:1009D000C1F3130140F2FF3341F480119A4202DA6D
:1009E00000200146704740F233439A42A2F233425C
:1009F00002DC5242FFF7ABBEFFF79ABE064C074D32
:100A000006E0E06840F0010394E8070098471034DE
:100A1000AC42F6D3FFF7BCFB94B40008B4B40008B2
:100A20000048704790B400082DE9F05F82460078D6
:100A3000002715468B460AF10104B946302801D03B
:100A40009DB113E014F8010B0127782803D0582832
:100A500001D045B10AE00DB1102D07D100271025B6
:100A600014F8010B02E0082500E00A250026B04634
:100A70000EE005FB080005FB06F1012701EB10461F
:100A80001FFA80F8B6F5803F00D3B94614F8010B81
:100A9000294600F018F80028EBDABBF1000F05D06A
:100AA0000FB1641E00E05446CBF80040B9F1000FCE
:100AB00006D007F0F1FF02210160C81EBDE8F09FDB
:100AC00048EA0640FAE73A2800D2303820F02002FF
:100AD000412A01D3A2F13700884201D34FF0FF3001
:100AE000704770B58D1810F8014B14F0030201D156
:100AF00010F8012B231106D110F8013B03E010F888
:100B0000016B01F8016B521EF9D1ABB110F8012B4A
:100B100004F00C048A1A0C2C03D0A2EB84129B1C48
:100B200008E010F8014BA2EB0422F8E712F8014BA1
:100B300001F8014B5B1EF9D5A942D4D3002070BD4A
:100B400010B50146806B026C12F0500F05D0026C9C
:100B5000D20626D500F0A2FE10BD016C41F4007152
:100B6000016401688A6812F0405F17D1027EAAB959
:100B7000CA6A12F4700F02D08A6852050ED44A680D
:100B800022F020024A60016C21F480710164016C42
:100B9000C90403D4016C41F00101016400F07CFE42
:100BA00010BD806BC26CBDE810400846104710B500
:100BB000806B40210164416C41F00401416400F00C
:100BC0006DFE10BD10B5806B00F067FE10BD00001B
:100BD00010B5054800F063FE044800F060FEBDE873
:100BE0001040034800F05BBE1CA5002064A5002057
:100BF000ACA50020464910B54A6822F440324A604C
:100C00004A6843681A434A6001684A6822F480725D
:100C10004A6001684A68036942EA03224A6001683F
:100C20004A6822F040724A6001684A6883681A4341
:100C30004A6001688A6822F400628A6001688A68F2
:100C4000C3681A438A60816A6FF07062D14201689A
:100C50008A6822F070628A6001688A680CD0836AB0
:100C60001A438A6001688A6822F040528A600168EB
:100C70008A68C36A1A4301E022F040528A60016820
:100C80008A6822F002028A6001688A68037E42EA6A
:100C900043028A6090F82010002901684A680FD04A
:100CA00042F400624A6001684A6822F460424A6085
:100CB00001684A68174C436A04EB43331A4301E066
:100CC00022F400624A600168CA6A22F47002CA62B1
:100CD0000168CA6A838B104C04EB03531A43CA623F
:100CE00001688A6822F400728A6001688A6890F854
:100CF000303042EA43228A6001688A6822F48062C6
:100D00008A6001688A68406942EA8020886010BD74
:100D10000023014000E0FFFF0000F0FF2DE9F05F3D
:100D200005464E002DED068B0C46304608F096FE2B
:100D30008046304608F092FE81460027A00008F069
:100D40008DFE0646002004E035F8102028F810201B
:100D5000401CA042F8DB2146404600F061F8024604
:100D6000002007E038F81010891A00D5494246F8EB
:100D70002010401CA042F5DB2146404607F052F906
:100D80000025B0EE408AF0EE608A9FED23AB4FF075
:100D9000010AAB4618E000BF53EC1A2B51EC180BBC
:100DA000FFF719FB41EC190B56F82500FFF7F4FB90
:100DB00053EC192BFFF772FC02D229F815A002E0C0
:100DC00029F815B07F1C6D1CA542E5DB0021084603
:100DD00008E000BF39F810201AB938F81020114483
:100DE00089B2401CA042F5DB91FBF7F080B2FFF71F
:100DF000E4FB41EC180B304608F0B0FC484608F024
:100E0000ADFC404608F0AAFCB0EE480AF0EE680AD5
:100E1000BDEC068BBDE8F09F00000000000008401C
:100E200010B500231A4604E030F81240521C234447
:100E30009BB28A42F8DB93FBF1F080B210BDFEE773
:100E40002DE9F05FFF4D00242DED068B05F1140612
:100E500005F128070422FB49FB4800F0C1FE3220BF
:100E600008F046FBF84800F053FF288826F81400E5
:100E7000688827F81400A88806EB44014880E888B1
:100E800007EB44014880A41C0A2CE3DBED4D002451
:100E90003C3505F1280605F11407EA4904223C31E6
:100EA000EA4800F09DFE322008F022FBE64800F000
:100EB0002FFF288826F81400688827F81400A888CF
:100EC00006EB44014880E88807EB44014880A41CF5
:100ED0000A2CE2DB322008F00BFBDC4800F018FFA4
:100EE000D8490A227831DA4800F07AFE322008F038
:100EF000FFFAD74800F00CFFD2480A211430FFF760
:100F00000DFF51EC100BFFF784FBD24C0A2120811E
:100F1000CC482830FFF702FF51EC100BFFF779FBAC
:100F20006081C8480A217830FFF7F8FE51EC100BB9
:100F3000FFF76FFB2082C3480A216430FFF7EEFE03
:100F400051EC100BFFF765FBE081BE480A215030E1
:100F5000FFF7E4FE51EC100BFFF75BFBA08121894A
:100F600004F1200000EE101AB8EE400A08F01EFC52
:100F7000BCEEC00A10EE100A2081618904F12C0039
:100F800000EE101AB8EE400A08F010FCBCEEC00AE1
:100F900010EE100A6081218A04F1240000EE101A7C
:100FA000B8EE400A08F002FCBCEEC00A10EE100ACF
:100FB0002082E18904F1280000EE101AB8EE400A00
:100FC00008F0F4FBBCEEC00A10EE100AE081A18923
:100FD00004F1340000EE101AB8EE400A08F0E6FB07
:100FE000BCEEC00A10EE100AA0812089FFF7E5FAD6
:100FF0009FED998B53EC182BFFF7EDF99FED989B24
:1010000053EC192BFFF7E7F9C4E912016089FFF7E8
:10101000D4FA53EC182BFFF7DEF99FED93AB53ECAA
:101020001A2BFFF7D8F99FED921B53EC112BFFF70A
:10103000D2F9C4E91401208AFFF7BFFA53EC182B48
:10104000FFF7C9F953EC1A2BFFF7C5F99FED8A1B7F
:1010500053EC112BFFF7BFF941EC100B84ED1A0B89
:10106000FFF734FB00EE100A04F1300008F09EFB9D
:1010700010EE100AFFF7E6FA41EC1A0B84ED1AABFA
:10108000E089FFF79AFA53EC182BFFF7A4F953EC19
:10109000192BFFF7A0F9C4E91601A089FFF78DFA13
:1010A00053EC182BFFF797F953EC192BFFF793F933
:1010B00041EC100B53EC1A2B84ED180BFFF78BF956
:1010C00041EC180B84ED1C8B94ED140B53EC102B9E
:1010D00094ED120B51EC100BFFF77DF941EC100B66
:1010E00051EC180B84ED1E0B53EC102BFFF76DF930
:1010F0009FED631B53EC112BFFF767F904F1800799
:10110000614DC7E9000101264FF000089FED5F9A8D
:10111000E06900287DD0608A801CFFF74EFA53EC0E
:10112000182BFFF7A3FA16D8B0EE490AA66107F00C
:101130006FFC034600221146554800F07BFEA5F1E6
:10114000240006F02FFD608A00EE100AB8EE400A77
:1011500085ED010A1DE0608A401FFFF71DFA94ED3E
:101160001C0B53EC102BFFF799FA12D24648C4F827
:10117000188006F03FFDB3EE040A07F049FC034671
:1011800000221021424800F055FE1021404800F096
:101190005EFEA069012830D195ED080AB5EEC00ABF
:1011A000F1EE10FA0DDB94ED1C0B51EC100BFFF778
:1011B0008DFA00EE100A344806F070FC95ED080A2E
:1011C0000FE095ED080AB5EEC00AF1EE10FA06D36D
:1011D00095ED080A2F4910EE100A884209DDB0EE9D
:1011E000490A07F015FC034600221021284800F0A8
:1011F00021FE1021264800F02AFE2178A0694FF434
:10120000806B50EA0102DFF890904FF4007A1E4D97
:1012100000E0FEE0A5F1240502D0002879D0E3E04B
:101220009FED1E0B53EC102B94ED140B51EC100B97
:10123000FFF734FA44D895ED080AF7EE000A30EECD
:10124000600A2FE0649D00201CA5002064A50020FA
:10125000ACA5002018000020835A04AD5D664A3F0B
:101260009A99999999992540C74B378941601C40B3
:1012700052B81E85EB51F43F0AD7A3703D0AF33FE5
:101280000000000000000040F8A400200000000062
:1012900014A7002000004842001402400000000093
:1012A0000000224007F0B4FB0346002211465B48D1
:1012B00000F0C0FD00225946484601F01CF924E028
:1012C0009FED570B53EC102B94ED120B51EC100BC0
:1012D000FFF7E4F901D2A079E0B195ED080AB5EE87
:1012E000C00AF1EE10FA06D395ED080A4E4910EE49
:1012F000100A884215DDB0EE490A07F089FB034663
:1013000000221146454800F095FD484806F04AFC89
:1013100053E059E000225146484601F0ECF8A6712E
:10132000F3E7A07910B101283DD046E0608A801E25
:10133000FFF732F997ED000B53EC102BFFF745F850
:10134000FFF748F900B200EE100AB8EEC00A85EDCA
:10135000010A95ED010AB5EEC00AF1EE10FA01D2CC
:1013600085ED019A94ED1E0B51EC100BFFF7AEF9D1
:1013700000EE100A2D4806F091FB95ED080A07F0E3
:1013800047FB034600221146244800F053FD01228A
:1013900059464D46484601F0AEF8012251462846CE
:1013A00001F0A9F809E0B2EE050A07F031FB0346A7
:1013B00000221146194800F03DFD0021174800F0B9
:1013C00046FDC4F818800FE001290DD1B0EE490A9E
:1013D00007F01EFB034600221146104800F02AFDCC
:1013E00000210E4800F033FD6078012811D19FEDF7
:1013F000100B53EC102B94ED160B51EC100BFFF768
:1014000035F906D8BDEC068B0020BDE8F05F06F08C
:1014100015BCBDEC068BBDE8F09F000014A70020B2
:1014200000000000000025400000C842D4A40020B5
:101430000000000000003940014800F097BD0000A6
:10144000F4A50020014800F091BD0000B4A60020E2
:10145000014800F08BBD000090A80020014800F07A
:1014600085BD000054A60020014800F07FBD0000AB
:10147000F0A8002001681823CAB2103AB2FBF3F2B8
:10148000054B6FF30901032A9B5CC36500D9091D55
:1014900081650846704700002C9C000810B5014685
:1014A00000208B698A6A4FF0C07453B1B3F5005FB6
:1014B00015D072B1012A0CD0022A0AD0032A09D110
:1014C00004E01AB1012A06D0022A03D1C96AC9016F
:1014D00000D5012010BDC96AA142FAD010BD002A72
:1014E000F7D0012AF2D0022AF3D0032AF3D010BD9C
:1014F00030B50468256825F480252560046863609C
:101500008368402B036803D099600068C26030BDD7
:101510009A600068C16030BD7047042000F002BFCF
:10152000082000F0FFBE102000F0FCBE10B53220F5
:1015300007F0D2FF0421084800F0D8FF002809D1A5
:101540000648007820B10020BDE8104006F076BBC8
:101550000120F9E710BD0000001002401800002033
:1015600010B5322007F0B8FF08210C4800F0BEFF8C
:10157000002812D10A480B4A90ED010A10EE101A09
:10158000914206DA90ED010AF1EE040A30EE200AEB
:1015900001E09FED050A80ED010A10BD0010024038
:1015A000D4A4002000004842000000002DE9F041D2
:1015B000322007F091FF10211A4800F097FF002811
:1015C0002ED1194D4FF4806600223146284600F096
:1015D00092FF6F1500223946284600F08CFF134C0D
:1015E0002078B0B102F014F8632005F00FFD002060
:1015F00020704FF4FA7007F06FFF01223146284641
:1016000000F079FF39462846BDE8F041012200F09C
:1016100072BF012005F0FAFC01F0D8FF0120E7E7D6
:10162000BDE8F08100100240001402401D000020BF
:101630007047704770B5B3F5804F05D06FF07041BB
:1016400040F82210002070BD50F82240084B8E89CF
:101650001C40D1E9003543EA05138D6889692D02E4
:1016600045EA06452B430B43234340F82230E9E784
:101670000000F0CFF0B50C6850F82430114A134048
:10168000D1E90125D1E903672A433E4332434E693C
:1016900032438E693243CE6932430E6A32434E6A18
:1016A00032438E6A3243CE6A3243CE6B096B324389
:1016B0000A431A43082D01D142F0400240F8242089
:1016C0000020F0BD8000F0FF30B500EB82025068D2
:1016D0008D8900F04043D1E9000440EA04108C6891
:1016E000240244EA054420430C8A074D05EB0454C8
:1016F00020430C7D6D0105EB046489692043084398
:1017000018435060002030BD0000F0FFAA21017096
:101710000A214170002181700121C17011210171E4
:1017200012214171132181711421C171152101729E
:1017300016214172172181721821C172192101737A
:101740001A214173FF2181737047704778B50024D7
:10175000009490F83C20012A19D0012280F83C2006
:101760000A6807230568092A13D9EE680A3A02EBCA
:10177000420293409E43EE600B788A680A3B03EB7B
:1017800043039A400368DD682A43DA6010E00220D0
:1017900078BD2E6902EB420293409E432E610B7886
:1017A0008A6803EB43039A4003681D692A431A6160
:1017B0004A681F23072A13D205686E6B521E02EB7C
:1017C000820293409E436E630B790A885B1E92B23D
:1017D00003EB83039A4003685D6B2A435A6327E057
:1017E00005680D2A12D22E6BD21F02EB82029340A3
:1017F0009E432E630B790A88DB1F92B203EB8303AF
:101800009A4003681D6B2A431A6311E0EE6A0D3A91
:1018100002EB820293409E43EE620B790A880D3BF5
:1018200092B203EB83039A400368DD6A2A43DA62CB
:10183000164B0568144A9D4206D10D68122D03D13E
:10184000556845F48005556005689D4218D10B68C0
:10185000102B01D0112B13D1536843F400035360B4
:10186000096810290CD10A490A4A0968B1FBF2F14A
:1018700001EB8101490000E0491E00910029FBD1E4
:1018800080F83C40002078BD00230140002001404A
:10189000309D002040420F0070477047704770B580
:1018A0000446006801684268C1F34001C2F3401277
:1018B00051B34AB3216CC90603D4216C41F40071C1
:1018C0002164816811F0405F17D1217EA9B9C16AF6
:1018D00011F4700F02D0816849050ED4416821F0DF
:1018E00020014160206C20F480702064206CC004D2
:1018F00003D4206C40F0010020642046FFF7CCFFA9
:1019000021686FF012000860206801684268C1F326
:101910008001C2F3C01289B382B3216CC90603D41B
:10192000216C41F400512164816811F4401F1ED1E3
:10193000816B11F4401F02D08168490517D44168BA
:10194000490514D4816811F0405F10D1217E71B92E
:10195000416821F080014160206C20F480502064B7
:10196000206CC00503D4206C40F0010020642046A8
:10197000FFF7EBFE21686FF00C000860206801683B
:10198000426811F0010FC2F380120ED06AB10068F4
:10199000C0070AD0206C40F480302064204600F05C
:1019A00046F821686FF0010008602068016842680D
:1019B000C1F34011C2F3806200290DD0002A0BD080
:1019C000616C41F0020161646FF020050560204602
:1019D000FFF764FF2068056070BD70B504004FF02C
:1019E000000503D0206C002610B107E0012070BD77
:1019F000204600F01DF8666484F83C60206CC00648
:101A000010D4206C20F4885040F00200206420465E
:101A1000FFF7F0F86664206C20F0020040F001004F
:101A2000206400E0012584F83C60284670BD7047C2
:101A30002DE9F04F87B0054614216846FEF7F8FB04
:101A40006048DFF87C811438D5F800C000245D4977
:101A500003235D4A0615C7144FF400594FF4807AEA
:101A60004FF4403BC44534D1D1F800C04CF4807CE5
:101A7000C1F800C0096801F480710591016841F066
:101A8000010101600068694600F001000590C02076
:101A90008DE81900104600F051FCDFF834814B4905
:101AA0004046E0E8021410C080E8D00E4046C8F876
:101AB00024407DE0C5F83880002207211220C8F8B4
:101AC000385000F08BFD122000F07AFD07B0BDE821
:101AD000F08FDFF80081C4453CD1D1F800C04CF450
:101AE000007CC1F800C0096801F40071059101682B
:101AF00041F001010160016801F0010105910168F7
:101B000041F0040101600068984600F0040005906F
:101B10000420CDE9000369460294104600F00EFC53
:101B20001020CDE90008694602942B4800F006FC1D
:101B3000DFF89C80254908F160084046483102C022
:101B40004FF00071E0E8021480E8D00E4046C8F87B
:101B500024402DE0DFF88480C445B7D1D1F800C01F
:101B60004CF4806CC1F800C0096801F480610591F3
:101B7000016841F0010101600068694600F0010060
:101B8000059001208DE81900104600F0D7FBDFF822
:101B900040800E4908F1C0084046183102C04FF09D
:101BA0008061E0E8021480E8D00E4046C8F8244086
:101BB00000F0ACFA00283FF47DAFFFF73AFD79E77B
:101BC00000200140443802400000024010640240FE
:101BD000F4A500200021014000080240002201403D
:101BE000F8B50E4600210446009190F83C0001280B
:101BF00007D0012084F83C0020688368DB0702D00E
:101C000011E00220F8BD836843F001038360374888
:101C1000374B0068B0FBF3F000EB400000E0401EE3
:101C200000900028FBD120688368DB075CD0236C20
:101C300040F20165AB4343F4807323644068400580
:101C400005D5206C20F4005040F480502064206CB6
:101C5000C00404D5606C20F00600606400E061649C
:101C600084F83C10A16B2448224DC863A16B234823
:101C70000864A16B2248C86421686FF022000860E4
:101C80002068416841F0806141602068816841F4CA
:101C9000807181602168134632464C31A06B00F0A0
:101CA0009FFA68681749C006206806D088421BD191
:101CB000816811F0405F13D016E08842F8D0124AD4
:101CC000904203D1D1F80423D206F1D00F4A9042BA
:101CD0000AD1D1F8041301F01F011029E8D303E061
:101CE000816841F0804181600020F8BD309D002076
:101CF00040420F0000230140410B0008C50B0008C3
:101D0000AF0B0008002001400021014000220140EB
:101D100010B50446002094F83C1001290CD0012194
:101D200084F83C1021688A6822F001028A602168E8
:101D30008A68D20702D013E0022010BD886820F420
:101D400080708860A06B00F0B8F821684A6822F0C3
:101D500080624A60216C21F4885141F001012164C4
:101D6000002184F83C1010BD70B54379012B1AD0C6
:101D7000012646710223037105682C6840F6FE7344
:101D800093409C43D1E900310B43934023432B60A4
:101D900001680B68C0249440A3430B6006710021C6
:101DA0004171084670BD022070BD70B5040003D0BB
:101DB0002079002510B105E0012070BD6571204635
:101DC00000F008F802202071256101202071002018
:101DD00070BD000010B586B0044614216846FEF7B9
:101DE00027FA1149206888421CD110480021026856
:101DF00042F000520260006800F0005005900B486D
:101E00001038026842F001020260006800F0010030
:101E10000590302000900320CDE901016946044877
:101E200000F08CFA06B010BD00740040403802404B
:101E30000000024018B5046800940068104421B105
:101E4000143000900360002018BD0830F9E730B569
:101E50004279012A16D001224271022303710368DC
:101E60001D6802FA01F425431D60002901680B6812
:101E70000AD00C6803F4802304F46014B3F5802FB7
:101E80000FD015E0022030BD0C6803F0040304F00D
:101E90003804042B0CD1382C0AD14B6843F00103D1
:101EA00005E0B4F5601F03D14B6843F002034B60BB
:101EB000027100214171084630BD2DE9F041044610
:101EC000876D00F01DFB064694F8350000250228BA
:101ED00006D08020606584F834500120BDE8F08190
:101EE0002068016821F0160101602068416921F035
:101EF00080014161206C08B9A06C20B120680168A4
:101F000021F0080101602068016821F001010160F1
:101F10000BE000F0F5FA801B052806D9202060654B
:101F200004F8345F03206070D8E720680068C007B9
:101F3000EFD194F85C103F208840B86004F8345F1B
:101F4000012060700020C9E790F83510022903D005
:101F50008021416501207047052180F83510006817
:101F6000016821F001010160002070472DE9F8436C
:101F700004464FF00009CDF8009063484FF4165125
:101F8000A56D0068B0FBF1F72E6894F85C1008208E
:101F900000FA01F131420FD021680A6852070BD5CF
:101FA0000A6822F004020A6094F85C108840A86075
:101FB000606D40F00100606594F85C104FF001081E
:101FC00008FA01F0304208D021684969090604D5B1
:101FD000A860606D40F00200606594F85C10042019
:101FE0008840304208D021680968890704D5A86074
:101FF000606D40F00400606594F85C10102088402B
:10200000304218D021680968090714D5A8602068F3
:102010000168490304D50068000308D5A16C07E0F6
:102020000168C90503D4016821F008010160216C31
:1020300009B12046884794F85C102020884030423F
:1020400031D021680968C9062DD5A86094F83500FB
:1020500005282068016806D0490347D500680003B9
:102060001DD4616C1CE021F01601016020684169FB
:1020700021F080014161206C08B9A06C20B120687A
:10208000016821F00801016094F85C103F2088404D
:10209000A86084F8349084F83580216D1FE0E16BEE
:1020A00009B120468847606D00282BD0606DC007BD
:1020B00014D0052084F835002068016821F0010162
:1020C00001600098401C0090B84203D82068006866
:1020D000C007F6D184F8349084F83580E16C00298B
:1020E00010D001B02046BDE8F04308470168C9059B
:1020F000D5D4016821F01001016084F8349084F88F
:102100003580CCE7BDE8F883309D00202DE9F04113
:10211000044600F0F5F906465CB1002584F8345019
:10212000022084F835002068016821F00101016077
:102130000DE00120BDE8F08100F0E2F9801B0528E8
:1021400005D920206065032084F83500F2E7206877
:102150000068C007F0D12268116820480140D4E926
:1021600001031843D4E90336334318436369184322
:10217000A3691843E3691843236A18430843616A53
:10218000042903D1D4E90B131943084310602068D4
:102190004069666A20F0070130460E430127042893
:1021A0000CD1A06A0643E06A40B12046FFF776F9F9
:1021B00020B14020606584F83570BAE72068466138
:1021C0002046FFF757F994F85C203F219140816049
:1021D000656584F835700020ACE700003F8010F0A2
:1021E0002DE9F0410446866D90F834000025012861
:1021F0000DD0012084F8340094F835700020012FB0
:1022000007D084F8340002252846BDE8F08102207A
:10221000FBE7022784F8357060652046FFF768F910
:1022200094F85C103F208840B0602068016841F05D
:10223000160101602068416941F080014161206C14
:1022400020B12068016841F0080101602068016840
:1022500041F001010160D7E72DE9F04186B014217A
:102260006846FDF7E5FF20480168002938D10124C0
:1022700004601E48016841F00101016000684FF4EC
:10228000805800F001000C27CDF80080CDE90470E3
:10229000032602250396CDE901546946144800F04F
:1022A0004DF84FF68070CDE9000502AA694682E834
:1022B000D000104800F042F84CF23370CDE9000530
:1022C00002AA694682E8D0000B4800F037F802AA5B
:1022D000694682E8D000CDE90085084800F02EF874
:1022E00006B0BDE8F0810000DC0000203838024074
:1022F0000014024000100240000C0240001802408E
:10230000042808D0082808D0102808D0B0F5004FBD
:1023100007D1FFF78DB9FFF709B9FFF721B9FFF72B
:1023200045B97047044910B50A68024202D00860F6
:10233000FFF7E6FF10BD0000143C01402DE9F84F07
:10234000DFF87CB100224FF001084FF0030A4FF094
:102350000F090BF1040E00BF0B6808FA02F42340CA
:10236000A3426ED14D68022D01D0122D0ED1D50899
:1023700000EB850CDCF820505607F70E09FA07F63B
:10238000B5430E69BE402E43CCF820600668550068
:102390000F790AFA05FC07F0030726EA0C06AF409E
:1023A000374307604E68012E05D0022E03D0112E50
:1023B00001D0122E0ED18668CF6826EA0C06AF40F7
:1023C000374387604668A6430C79C4F300149440F1
:1023D00034434460C6688C6826EA0C06AC4034433B
:1023E000C4604C68E40065D5364C256845F48045EA
:1023F0002560246822F0030504F480440094324CE4
:102400002E19D6F8084895072F0F09FA07F5AC439F
:102410002E4DA84201D1002524E02D4DA84201D126
:1024200001251FE02B4DA84201D102251AE02A4DBB
:10243000A84201D1032515E0284DA84202D1042568
:1024400010E037E0264DA84201D105250AE0254DD0
:10245000A84201D1062505E0234DA84201D1072558
:1024600000E00825BD402543C6F80858DBF80040C9
:102470005D464E689C43F60300D51C432C60DEF895
:10248000004075464E689C43B60300D51C432C6043
:102490000B4D08352C684E689C43F60200D51C4352
:1024A0002C60074D0C352C684E689C43B60200D555
:1024B0001C432C60521C102AFFF44EAFBDE8F88F6D
:1024C000003C01404438024000300140000002401E
:1024D0000004024000080240000C024000100240CC
:1024E0000014024000180240001C0240006908402D
:1024F00000D0012070470AB1816170470904FBE7F1
:102500000148806870470000249D002002488168CF
:102510000278114481607047249D00200B4810B55B
:10252000016841F400710160016841F4806101605B
:10253000016841F480710160032000F06FF8002011
:1025400000F006F800F024F8002010BD003C024026
:1025500070B50D4D04464FF47A712878B1FBF0F058
:102560000A490968B1FBF0F000F093FB48B9102C60
:1025700007D200222146501E00F030F800206C6087
:1025800070BD012070BD0000249D0020309D002002
:102590000A4808B5016841F480410160006800F410
:1025A000804000900548001F016841F080510160A3
:1025B000006800F08050009008BD000044380240E0
:1025C000002809DB00F01F02012191404009800032
:1025D00000F1E020C0F8001170470000F0B40E4B8D
:1025E0001B680C46C3F30223C3F10705042D00D971
:1025F0000425191D072901D2002300E0DB1E012656
:1026000006FA05F1491E214099409E40761E16406B
:102610003143F0BC06F030BA0CED00E0064900F0A2
:10262000070208684FF6FF03184040EA0220034AF9
:1026300010430860704700000CED00E00000FA0550
:102640002DE9F0470E46050065D0DFF81481D8F873
:102650000000F7B200F00F00B04207D288F8007017
:10266000D8F8000000F00F00B04254D128683D4C6B
:10267000810712D5400703D5206840F4E050206060
:102680002878000703D5206840F460402060206867
:10269000A96820F0F000084320602878C0072DD0FA
:1026A000304968680839012812D0022813D003285D
:1026B00011D00968890700292DDA216821F003016A
:1026C00001432160FFF71CFF814641F2883A0EE08A
:1026D00009688903EFE709688901ECE7FFF710FF54
:1026E000A0EB0901514502D90320BDE8F08720681D
:1026F000696800F00C00B0EB810FEFD1D8F8001042
:10270000404601F00F01B14207D90770006800F0A0
:102710000F00B04201D00120E7E72878400705D537
:102720002068E96820F4E05008432060287800071A
:1027300006D52068296920F4604040EAC100206085
:1027400000F036F82168084AC1F30311515CC84013
:10275000064908600020FFF7FBFE0020C5E70000E7
:10276000003C024008380240349C0008309D0020A4
:102770000448054900680968044AC1F38221515C94
:10278000C8407047309D002008380240449C000833
:102790000448054900680968044AC1F34231515CA4
:1027A000C8407047309D002008380240449C000813
:1027B000154810B5006810F00C02144813D04110F1
:1027C000042A0FD0082A0ED10F4C241F2268236838
:1027D00002F03F025B0207D52068C0F38810A0FB1F
:1027E000010106E0084610BD2168C1F38811A1FB74
:1027F00000010023FDF7E4FC2168C1F30141491CFD
:102800004900B0FBF1F010BD083802400024F4008C
:102810002DE9F84F050076D02878DFF8F8B2BE4CE5
:10282000C00749D0DBF800105846C1F381010129E7
:1028300008D00068C0F3810002280AD1201D00687A
:10284000400206D52068800336D568680028E2D0AB
:1028500032E06868B0F5803F10D0B0F5A02F206856
:1028600010D020F480302060206820F48020206088
:102870006868A0B1FFF744FE06460CE0206840F40B
:102880008030F4E740F480202060F7E7FFF738FE5F
:10289000801B642873D820688003F7D50CE0FFF70D
:1028A0002FFE064605E000BFFFF72AFE801B6428C6
:1028B000F0D820688003F7D42878DFF8608280079A
:1028C0004FF000093ED5DBF80010584611F00C0F10
:1028D00009D00068C0F3810002280BD18D48001F89
:1028E0000068400206D42068800715D5E8680128F2
:1028F00009D111E0E868B8B10120C8F80000FFF77D
:10290000FFFD064605E002E1FFF7FAFD801B022805
:10291000C0D820688007F7D52068296920F0F80022
:1029200040EAC10020600DE0C8F80090FFF7E8FD24
:10293000064604E0FFF7E4FD801B02281FD820684C
:102940008007F7D42878000722D5724E7448696949
:102950006C3671B101210160FFF7D2FD074604E03A
:10296000FFF7CEFDC01B022809D830688007F7D5D5
:102970000EE0C0F80090FFF7C3FD074605E083E0D6
:10298000FFF7BEFDC01B02287ED830688007F7D451
:102990002878400768D5DFF87CA100270AF1380ABB
:1029A000DAF80000C0000BD4DAF8001041F08051D2
:1029B000CAF80010DAF80000012700F080500090FB
:1029C000584E3068C00510D4306840F480703060D4
:1029D000FFF796FD009005E0FFF792FD0099401A81
:1029E000022851D83068C005F6D54A4EA868683626
:1029F00001280FD00528306810D020F00100306089
:102A0000306820F004003060A868B8B1FFF778FDA6
:102A100000900FE0306840F00100F4E740F004005F
:102A20003060F7E7FFF76CFD0099411A41F28830FA
:102A3000814264D830688007F4D50EE0FFF760FD6E
:102A4000009007E0FFF75CFD0099411A41F28830E1
:102A5000814254D830688007F4D42FB1DAF80010DE
:102A600021F08051CAF80010A869C0B3DBF800104B
:102A7000C1F3810102294AD00228484607D0C8F88C
:102A80006000FFF73DFD00E039E005463AE04746CB
:102A9000C8F86000FFF734FD064604E0FFF730FD9C
:102AA000801B02282BD820688001F7D4D5E90701C4
:102AB0000843A96A1C4A490802EB01416A6A41EAD3
:102AC0008211084395F82C1040EA01611148001F5B
:102AD000016001203866FFF713FD054605E014E0AC
:102AE000FFF70EFD401B022809D820688001F7D5AA
:102AF0000BE000BFFFF704FD401B022802D90320B2
:102B0000BDE8F88F20688001F4D40020F8E70120A8
:102B1000F6E7000008380240003802400000474253
:102B2000800E4742007000400000FFFF70B50400B7
:102B300005D00025A56294F8510010B106E00120EF
:102B400070BD84F85050204600F030F8022084F820
:102B500051002068016821F040010160D4E90101C1
:102B60000843D4E903121143084361690843218BE8
:102B700001F400710843E1690843216A0843A16A2E
:102B8000084321680860A069042101EA1040616AD5
:102B90000843216848602068C16921F40061C1616F
:102BA0006565012084F85100002070BDF0B587B044
:102BB000044614216846FDF73BFB1B492068884208
:102BC00030D11A480025016841F480410160006855
:102BD00000F48040059015481038016841F0040168
:102BE0000160016801F004010591016841F00201F2
:102BF00001600068022400F0020005900C20CDE97D
:102C0000000402AA01200326052782E8C1006946C4
:102C10000748FFF793FB60028DE8F100694605481D
:102C2000FFF78CFB07B0F0BD003800404038024091
:102C3000000802400004024070B515460E4604002C
:102C400003D094F8490010B107E0012070BD0020C6
:102C500084F84800204600F01AF804F108012068C2
:102C6000FEF708FD3146A2682068FEF72DFDD4E985
:102C700001022946236BFEF7DDFCA168206850F8AD
:102C8000212042F0010240F82120002070BDFFF712
:102C9000E3BA10B5401EB0F1807F01D3012010BD12
:102CA0004FF0E02460610F21601705F0E5FE002081
:102CB000A06107202061002010BD7047704770B5EB
:102CC00090F83C20012A19D0012400F83C4F022240
:102CD000427050F83C3C5A689D6822F070060A68C1
:102CE0004968324325F0800529435A6050F83C2C4E
:102CF0009160447000210170084670BD022070BDD3
:102D000010B5040003D094F83D0010B107E0012095
:102D100010BD002084F83C00204600F00DF8022091
:102D200084F83D00211D206805F044FA012084F854
:102D30003D00002010BD000008B501681448B1F145
:102D4000804F14D0134A914220D1016841F0020112
:102D500001600068002200F00200009008211D20A0
:102D6000FFF73CFC1D20BDE80840FFF729BC0168C7
:102D700041F0010101600068002200F001000090B4
:102D80000E211C20FFF72AFC1C20ECE708BD0000E8
:102D900040380240000400400168CA6842F0010265
:102DA000CA600068816801F00701062903D0016844
:102DB00041F0010101600020704770B5044690F8B1
:102DC0003C00012817D0012584F83C50022084F8EB
:102DD0003D002068826822F0770222F47F42826000
:102DE0000868502830D00DDC20284DD005DC98B381
:102DF00010283BD148E0022070BD302844D0402844
:102E000034D139E0602828D0702806D0B0F5805F32
:102E10002CD0B0F5005F29D10AE0CB68D1E90121BF
:102E2000206805F02BFA2068816841F0770109E0FD
:102E3000CB68D1E90121206805F020FA206881687B
:102E400041F48041816011E0CA684968206805F05A
:102E500027FA5021206807E016E0CA684968206810
:102E600005F02FFA6021206805F012FA84F83D5031
:102E7000002084F83C0070BDCA684968206805F0ED
:102E80000FFA40212068EFE7226801461046EBE781
:102E9000704770B50446006801694FF00005C943EA
:102EA000890715D4C168C943890711D4E91E016196
:102EB00001202077206880698007204602D0FFF734
:102EC000E7FF04E000F098F8204600F096F8257738
:102ED00020680169C943490717D4C168C943490734
:102EE00013D46FF00401016102202077206880690B
:102EF00010F4407F204602D0FFF7CAFF04E000F044
:102F00007BF8204600F079F8257720680169C943ED
:102F1000090716D4C168C943090712D46FF0080124
:102F20000161042020772068C0698007204602D014
:102F3000FFF7AEFF04E000F05FF8204600F05DF818
:102F4000257720680169C943C90617D4C168C943F8
:102F5000C90613D46FF010010161082020772068A2
:102F6000C06910F4407F204602D0FFF791FF04E0D3
:102F700000F042F8204600F040F82577206801690B
:102F8000C943C90708D1C168C943C90704D1891E0B
:102F90000161204600F032F820680169C943090642
:102FA00009D4C168C943090605D46FF080010161E5
:102FB0002046FFF782FE20680169C943490609D40B
:102FC000C168C943490605D46FF04001016120463C
:102FD00000F04CF820680169C94389060BD4C16828
:102FE000C943890607D46FF0200101612046BDE87E
:102FF0007040FFF763BE70BD7047704770B50546FF
:103000001648854221D1164C164B4FF4806120782A
:10301000012801D070B111E0A06B0A2807D301206C
:10302000607000221846FFF766FA002000E0401C9E
:10303000A06303E001221846FFF75DFA60790128DA
:1030400001D105F003FC06F03FFD0748854203D19E
:10305000BDE87040FDF7F4BE70BD0000D0A70020B1
:10306000180000200014024010A80020704710B57E
:1030700004460068416994F83920C1F3C011212A3F
:103080000BD151B1416921F080014161206B08B140
:10309000FEF713FF204605F0A0F92068416994F877
:1030A0003A20C1F38011222A0BD151B1416921F09C
:1030B00040014161606B08B1FEF7FFFE204605F05C
:1030C0007EF9002010BD704770B502680446106894
:1030D000D168536910F00F0F50D003F0010501F4CF
:1030E000907635435DD0C20705D0CA0503D5E26BA3
:1030F00042F00102E263420705D5DA0703D0E26B32
:1031000042F00202E263820705D5DA0703D0E26BE0
:1031100042F00402E263020705D5DA0703D0E26B4E
:1031200042F00802E263E26B002A33D0800604D545
:10313000880602D5204605F059F920684069E16B00
:10314000C0F38010090700D428B3204605F037F9F2
:103150002068416949061AD5416921F04001416161
:10316000606BA0B11B490165606BFEF7EDFE0028A6
:1031700010D0606B016DBDE870400847830610D524
:103180008B060ED52046BDE8704005F02FB92046CD
:10319000FFF799FF70BD2046FFF795FF0020E06321
:1031A00070BD030606D50B0604D52046BDE8704069
:1031B00005F0BEBA4006F3D54806F1D5D1682046E1
:1031C00021F04001D160202184F8391000F09AF9F3
:1031D00070BD0000E782000870B5040004D094F8C8
:1031E0003900002510B106E0012070BD84F8385088
:1031F000204600F023F8242084F839002068C168B4
:1032000021F40051C160204605F03CF920680169B5
:1032100021F4904101612068416921F02A01416156
:103220002068C16841F40051C160E563202084F842
:10323000390084F83A00002070BD00002DE9F04309
:1032400087B0064614216846FCF7F2FF3249306821
:1032500088425DD131480025016841F010010160CC
:10326000006800F0100005902C481438016841F007
:10327000010101600068694600F0010005904FF40B
:10328000C060009002200190012002900320039072
:10329000072004902248FFF751F8234C21484FF0B3
:1032A00000672060C4E901754FF48068C4E90358E1
:1032B00080156561C4E906504FF40039C4E90895EA
:1032C0002046FEF723FF08B1FEF7B3F97463A66347
:1032D000154C144860347830E4E802074020A4E834
:1032E0002101114844F814596030A561C4E9075917
:1032F0006562FEF70BFF08B1FEF79BF9346300220D
:1033000005212520A663FFF769F92520FFF758F965
:1033100007B0BDE8F08300000010014044380240CF
:10332000000002404064024090A80020F8B5044626
:1033300090F83A0020283CD1C1B3BAB394F83800D1
:10334000012836D0012084F83800A162A28500252A
:10335000E563222084F83A00636B1748D863636BF7
:1033600016481864636B1648D864606B134605658D
:103370000846666B216802463046091DFEF730FF9D
:10338000206801684168009184F83850C16841F4B0
:103390008071C1602068416941F00101416120688C
:1033A000416941F0400141610020F8BDFFE7012083
:1033B000FBE70220F9E70000418300087D83000855
:1033C000F7820008704770472DE9F843044690F8EB
:1033D00039001F4616460D46202850D1A5B19EB192
:1033E00094F8380001284AD0012084F838004FF0C2
:1033F0000008C4F83C80212084F83900FFF780F8E9
:10340000A6848146E68426E00120BDE8F883E08CAE
:10341000401EE084A0684B46B0F5805F4FF000028C
:103420004FF080012046009703D005F0B2F9E8B9CB
:103430000DE005F0AEF9C8B928882168C0F308008E
:103440004860206908B16D1C05E0AD1C03E02168EF
:1034500015F8010B4860E08C0028D8D14B460022BB
:1034600040212046009705F094F908B10320CCE7ED
:10347000202084F8390084F838800020C5E7022035
:10348000C3E7000070B5044690F83900202830D119
:1034900069B362B394F8380001282AD0012084F877
:1034A00038002162A284E2840025E563212084F8AB
:1034B0003900236B1048D863236B10481864236BC2
:1034C0000F48D864206B134605652668206B321DB3
:1034D000FEF786FE21686FF04000086084F83850DF
:1034E0002068416941F080014161002070BD0120E8
:1034F00070BD022070BD000087830008B5830008FE
:10350000F782000870477047FEE700002DE9F0439E
:10351000174C81460025208866884643A088A0F580
:10352000D041043902D1A079012808D000210846F1
:1035300003F096FE03F0EEFF4FF0D84013E00020BA
:10354000A0712A2767814FF02B08A4F80C80014650
:1035500003F086FE0120A071A4F80A80A781E9E7A4
:10356000A0F880906D1CB542FAD3BDE8F08300004E
:1035700050A900202DE9F0478246A2EB0A00401C2A
:103580000E4685B2981B401C87B200244FF0D849E4
:10359000DDF8208016E0301981B2504603F060FE5D
:1035A00003F0B8FF0020494608E000BF04FB050314
:1035B00038F81320A1F88020401C80B2A842F5D32F
:1035C000641CA4B2BC42E6D3BDE8F0870F488088F3
:1035D000A0F51341413913D0A0F5D04104390FD0E3
:1035E000A0F5A64110390BD0A0F5C851633907D01A
:1035F000A0F5AA41103905D00021072003F094BF9F
:10360000282001E04FF4205003F078BF50A900209B
:1036100010488088A0F51341413914D0A0F5D0415D
:10362000043910D0A0F5A64110390CD0A0F5C8512E
:10363000633908D0A0F5AA41103906D040F27311C1
:10364000072003F071BF292001E04FF4245003F05C
:1036500055BF000050A900202DE9F04F4A492A2407
:103660002B25898845F2105A4FF4305B4FF4285EC1
:103670004FF448764FF0F00C49F241394FF4A07303
:1036800045F210374FF4F07280B13F484FF0010817
:10369000494580F806800380A0F802C001D0B942F5
:1036A0003ED12C2606814481858157E036484FF073
:1036B0000008494580F80680A0F800C0438006D085
:1036C000A1F5D04CBCF1040C01D0B9420CD12C2690
:1036D00006814481A1F5D0448581043C01D0B942E2
:1036E00044D10380428041E0514507D1A0F808B0A1
:1036F000A0F80AE04FF42C5181810EE0A1F5C853E7
:10370000633B06D022210181202141812121818139
:103710002CE02C210181458184810280468025E0B6
:10372000A1F5D04CBCF1040C09D051450BD1A0F847
:1037300008B0A0F80AE04FF42C54848121E02C2634
:103740000681458109E0A1F5C85CBCF1630C12D08B
:10375000222404812124448120248481A1F5D044A1
:10376000043C01D0B94201D102804380BDE8F04F52
:10377000002003F073BC4FF02C0CA0F808C044816B
:10378000858106804280E9E750A900202DE9FE4F9F
:10379000161ACDE900104FF000085D1A47464FF0A9
:1037A000FF30002E02DD4FF0010102E003D14FF0A7
:1037B00000018B4602E08346C6F10006002D02DDC3
:1037C0004FF0010002E003D14FF00000824602E01A
:1037D0008246C5F10005AE4201DD344600E02C46CC
:1037E000601C4FF00009029018E0009881B2019827
:1037F00080B200F019F8B0442F44A04504DD0198D0
:10380000A8EB040858440190A74203DD00983F1B31
:103810005044009009F101001FFA80F9029989458E
:10382000E3DDBDE8FE8F000000B503F019FD03F0F5
:1038300071FE03484FF0D8410088A1F8800000BD18
:10384000349D00202DE9F04F07460D46DDE90A863C
:10385000364800211C46934601802B463A461946BD
:103860005846FFF793FF5A46234629461046FFF76E
:103870008DFF281B4FF4805191FBF0F0401C98FB0A
:10388000F0F430884FF6FF72281A81B2584600F0E3
:103890004FF8281BB6F8008081B234801F225846AA
:1038A00000F046F80124A7EB0B093AE01F494FF658
:1038B000FF700BEB04070880A5EB080083B2781EAD
:1038C000824682B236F81400281A81B2B8B2FFF7E5
:1038D0005DFF36F814004FF6FF72281A81B2B8B2B5
:1038E00000F026F836F81410404626F81480884672
:1038F000281A81B2B8B21F2200F01AF80B481F2113
:103900001FFA8AF2018006EB440030F8020C281AF4
:1039100083B236F81400281A81B2B8B2FFF736FF26
:10392000641CA145C2DCBDE8F08F0000349D00207E
:103930002DE9F043444C91460246A08823460D46AB
:103940004FEA1128160A5B89A0F51341413917D0B7
:10395000A0F5A641103913D0A0F5AA41103914D012
:103960002646A0F5C857B1793688B61A761E633F49
:1039700025D0A0F5D047043F3DD0012951D051E0DA
:10398000184603F0BBFD30463CE0184603F0B6FD98
:10399000304603F0A7FD6089401C80B203F0AEFD05
:1039A000D0B203F09FFDA08903F0A8FD404603F0CC
:1039B00099FDA089401C80B203F0A0FD2DE001B963
:1039C000B2B2184603F09AFD160A304603F08AFD9B
:1039D000D0B203F087FD304603F084FDD0B203F08F
:1039E00081FDA08903F08AFD404603F07BFDE8B22B
:1039F00003F078FD0EE0012900D1B2B2184603F0C1
:103A00007DFD100A03F06EFDD0B203F06BFDA089BE
:103A100003F074FD404603F065FDE8B203F062FD7B
:103A200008E0B2B21146184603F07EFDA08929468F
:103A300003F07AFD4FF0D840218920F87E1FA0F8CE
:103A40000290BDE8F083000050A900202DE9F04F5E
:103A500097B000200090142101A8FCF7E9FBFE4874
:103A6000016841F020010160016801F0200100912E
:103A7000016841F010010160016801F0100100913E
:103A8000016841F002010160016801F0020100914A
:103A9000016841F008010160016801F0080100912E
:103AA000016841F040010160006800F040000090B2
:103AB000E9480830016841F001010160006801A98E
:103AC00000F0010000904FF40040019001200290AE
:103AD000039002200490E148FEF730FC4FF0204AAA
:103AE00006A95046FDF7C6FD03F02AFE322005F078
:103AF000F3FC0121002003F017FD322005F0ECFC5F
:103B0000002003F079FAD64F4FF6FF7949F241359C
:103B1000B88045F2103645F2105441F6631246F66D
:103B20000408FF2804D3484502D0B0F5134F73D1E1
:103B3000D32003F0E3FC03F055FAB88003F052FA07
:103B4000B88003F04FFA09EA0020B88003F04AFA7F
:103B5000B9880843B880A8425ED0BF2003F0CEFCED
:103B600003F040FAB88003F03DFAB88003F03AFA67
:103B7000B88003F037FA09EA0020B88003F032FA7F
:103B8000B9880843B880404546D0D42003F0B6FC3D
:103B900003F028FAB88003F025FAB88003F022FA7F
:103BA00009EA0020B88003F01DFAB9880843B880FC
:103BB000B04231D04FF45A4003F0A0FC03F012FAA7
:103BC000B8804FF45B4003F099FC03F00BFA09EA6C
:103BD0000020B8804FF45C4003F090FC03F002FA40
:103BE000B9880843B880B0F5004F38D0A04213D050
:103BF000A12003F083FC03F0F5F9B88003F0F2F99B
:103C000009EA0020B88003F0EDF9B9880843A0F56F
:103C1000AE41B880613920D080B2A84205D0B04210
:103C200003D0A04201D090421BD1DAF81C115046BB
:103C300021F00F01CAF81C11DAF81C1121F470618F
:103C4000CAF81C11DAF81C1141F00301CAF81C1162
:103C5000DAF81C1141F4007120E0BA80E5E7BC807D
:103C6000E3E7404503D0A0F54541053918D1DAF81E
:103C70001C11504621F00F01CAF81C11DAF81C1172
:103C800021F47061CAF81C11DAF81C1141F00A0124
:103C9000CAF81C11DAF81C1141F44061C0F81C117B
:103CA000B888A8427ED1CF2003F028FC002003F082
:103CB00019FCC12003F016FC302003F013FCED20AA
:103CC00003F01CFC642003F00DFC032003F00AFC4D
:103CD000122003F007FC812003F004FCE82003F02D
:103CE0000DFC852003F0FEFB102003F0FBFB7A2087
:103CF00003F0F8FBCB2003F001FC392003F0F2FBCA
:103D00002C2003F0EFFB002003F0ECFB342003F049
:103D1000E9FB022003F0E6FBF72003F0EFFB202095
:103D200003F0E0FBEA2003F0E9FB002003F0DAFBFC
:103D3000002003F0D7FBC02003F0E0FB1B2003F0C2
:103D4000D1FBC12003F0DAFB012003F0CBFBC5203F
:103D500003F0D4FB302003F0C5FB302003F0C2FB9E
:103D6000C72003F0CBFBB72003F0BCFB362003F0E9
:103D7000C5FB482003F0B6FB3A2003F0BFFB5520FB
:103D800003F0B0FBB12003F0B9FB002003F0AAFB65
:103D90001A2003F0A7FBB62003F0B0FB0A2003F0C3
:103DA000A1FB00E097E0A22003F09CFBF22003F0CF
:103DB000A5FB002003F096FB262003F09FFB0120CB
:103DC00003F090FBE02003F099FB0F2003F08AFB47
:103DD0002A2003F087FB282003F084FB082003F04F
:103DE00081FB0E2003F07EFB082003F07BFB5420B8
:103DF00003F078FBA92003F075FB432003F072FB6E
:103E00000A2003F06FFB0F2003F06CFB002003F08F
:103E100069FB002003F066FB002003F063FB002039
:103E200003F060FBE12003F069FB002003F05AFB84
:103E3000152003F057FB172003F054FB072003F075
:103E400051FB112003F04EFB062003F04BFB2B200F
:103E500003F048FB562005E03038024000040240E1
:103E600050A9002003F03EFB3C2003F03BFB052063
:103E700003F038FB102003F035FB0F2003F032FB7A
:103E80003F2003F02FFB3F2003F02CFB0F2003F01B
:103E900029FB2B2003F032FB002003F023FB002042
:103EA00003F020FB012003F01DFB3F2003F01AFB71
:103EB0002A2003F023FB002003F014FB002003F072
:103EC00011FB002003F00EFBEF2003F00BFB112091
:103ED00003F014FBA5E040457ED1112003F00EFB5A
:103EE000142005F0F9FAD02003F008FB072003F0B6
:103EF000F9FA422003F0F6FA1D2003F0F3FAD1207C
:103F000003F0FCFA002003F0EDFA1A2003F0EAFABD
:103F1000092003F0E7FAD22003F0F0FA012003F0C1
:103F2000E1FA222003F0DEFAC02003F0E7FA1020C5
:103F300003F0D8FA3B2003F0D5FA002003F0D2FAC0
:103F4000022003F0CFFA112003F0CCFAC52003F0D1
:103F5000D5FA032003F0C6FAC82003F0CFFA0020F8
:103F600003F0C0FA252003F0BDFA212003F0BAFACD
:103F7000052003F0B7FA002003F0B4FA0A2003F09A
:103F8000B1FA652003F0AEFA252003F0ABFA7720F2
:103F900003F0A8FA502003F0A5FA0F2003F0A2FACC
:103FA000002003F09FFAF82003F0A8FA012003F0A4
:103FB00099FAFE2003F0A2FA002003F093FA0220FF
:103FC00003F090FA202003F099FA362003F096FAD5
:103FD000082003F087FA00E029E03A2003F08EFA87
:103FE000552003F07FFA2B2003F088FA002003F01D
:103FF00079FA002003F076FA012003F073FA3F20EB
:1040000003F070FA2A2003F079FA002003F06AFA2C
:10401000002003F067FA012003F064FADF2003F0C8
:1040200061FA782005F058FA292001F0FBBEB04271
:104030007ED1ED2003F062FA012003F053FAFE2056
:1040400003F050FAEE2003F059FADE2003F04AFAAA
:10405000212003F047FAF12003F050FA012003F089
:1040600041FADF2003F04AFA102003F03BFAC420A3
:1040700003F044FA8F2003F035FAC62003F03EFA2D
:10408000002003F02FFAE22003F02CFAE22003F0E4
:1040900029FAE22003F026FABF2003F02FFAAA2023
:1040A00003F020FAB02003F029FA0D2003F01AFAE9
:1040B000002003F017FA0D2003F014FA002003F09B
:1040C00011FA112003F00EFA002003F00BFA192068
:1040D00003F008FA002003F005FA212003F002FAA9
:1040E000002003F0FFF92D2003F0FCF9002003F07D
:1040F000F9F93D2003F0F6F9002003F0F3F95D2013
:1041000003F0F0F9002003F0EDF95D2003F0EAF987
:10411000002003F0E7F9B12003F0F0F9802003F06C
:10412000E1F9002003F0DEF98B2003F0DBF900E079
:10413000FDE3002003F0D6F9962003F0D3F9002028
:1041400003F0D0F9B22003F0D9F9002003F0CAF946
:10415000002003F0C7F9022003F0C4F9002003F0A7
:10416000C1F9032003F0BEF9002003F0BBF9B3202E
:1041700003F0C4F9002003F0B5F9002003F0B2F910
:10418000002003F0AFF9002003F0ACF9002003F0A9
:10419000A9F9002003F0A6F9002003F0A3F90020FC
:1041A00003F0A0F9002003F09DF9002003F09AF934
:1041B000002003F097F9002003F094F9002003F0A9
:1041C00091F9002003F08EF9002003F08BF9002014
:1041D00003F088F9002003F085F9002003F082F94C
:1041E000002003F07FF9002003F07CF9002003F0A9
:1041F00079F9002003F076F9002003F073F900202C
:1042000003F070F9B42003F079F98B2003F06AF918
:10421000002003F067F9962003F064F9002003F012
:1042200061F9A12003F05EF9002003F05BF9B520ED
:1042300003F064F9022003F055F9002003F052F96D
:10424000032003F04FF9002003F04CF9042003F0A1
:1042500049F9002003F046F9B62003F04FF9002099
:1042600003F040F9002003F03DF9B72003F046F9D0
:10427000002003F037F9002003F034F93F2003F069
:1042800031F9002003F02EF95E2003F02BF9002015
:1042900003F028F9642003F025F9002003F022F947
:1042A0008C2003F01FF9002003F01CF9AC2003F070
:1042B00019F9002003F016F9DC2003F013F90020AF
:1042C00003F010F9702003F00DF9002003F00AF953
:1042D000902003F007F9002003F004F9EB2003F02D
:1042E00001F9002003F0FEF8DC2003F0FBF80020C9
:1042F00003F0F8F8B82003F001F9002003F0F2F819
:10430000002003F0EFF8002003F0ECF8002003F0A9
:10431000E9F8002003F0E6F8002003F0E3F80020BD
:1043200003F0E0F8002003F0DDF8BA2003F0E6F82F
:10433000242003F0D7F8002003F0D4F8002003F085
:10434000D1F8002003F0CEF8C12003F0D7F82020E8
:1043500003F0C8F8002003F0C5F8542003F0C2F8B9
:10436000002003F0BFF8FF2003F0BCF8002003F0AA
:10437000B9F8C22003F0C2F80A2003F0B3F8002015
:1043800003F0B0F8042003F0ADF8002003F0AAF821
:10439000C32003F0B3F83C2003F0A4F8002003F09E
:1043A000A1F83A2003F09EF8002003F09BF8392092
:1043B00003F098F8002003F095F8372003F092F806
:1043C000002003F08FF83C2003F08CF8002003F06D
:1043D00089F8362003F086F8002003F083F83220B5
:1043E00003F080F8002003F07DF82F2003F07AF826
:1043F000002003F077F82C2003F074F8002003F07D
:1044000071F8292003F06EF8002003F06BF82620E5
:1044100003F068F8002003F065F8242003F062F848
:10442000002003F05FF8242003F05CF8002003F084
:1044300059F8232003F056F8002003F053F83C20ED
:1044400003F050F8002003F04DF8362003F04AF84E
:10445000002003F047F8322003F044F8002003F076
:1044600041F82F2003F03EF8002003F03BF82C2009
:1044700003F038F8002003F035F8292003F032F873
:10448000002003F02FF8262003F02CF8002003F082
:1044900029F8242003F026F8002003F023F8242034
:1044A00003F020F8002003F01DF8232003F01AF891
:1044B000002003F017F8C42003F020F8622003F076
:1044C00011F8002003F00EF8052003F00BF800208F
:1044D00003F008F8842003F005F8002003F002F848
:1044E000F02002F0FFFF002002F0FCFF182002F095
:1044F000F9FF002002F0F6FFA42002F0F3FF0020F5
:1045000002F0F0FF182002F0EDFF002002F0EAFFB9
:10451000502002F0E7FF002002F0E4FF0C2002F040
:10452000E1FF002002F0DEFF172002F0DBFF002099
:1045300002F0D8FF952002F0D5FF002002F0D2FF54
:10454000F32002F0CFFF002002F0CCFFE62002F0C3
:10455000C9FF002002F0C6FFC52002F0CFFF3220C5
:1045600002F0C0FF002002F0BDFF442002F0BAFFBD
:10457000002002F0B7FF652002F0B4FF002002F037
:10458000B1FF762002F0AEFF002002F0ABFF8820E2
:1045900002F0A8FF002002F0A5FFC62002F0AEFF47
:1045A000202002F09FFF002002F09CFF172002F065
:1045B00099FF002002F096FF012002F093FF0020F7
:1045C00002F090FFC72002F099FF002002F08AFF5E
:1045D000002002F087FF002002F084FF002002F09C
:1045E00081FFC82002F08AFF002002F07BFF00203C
:1045F00002F078FF002002F075FF002002F072FF49
:10460000C92002F07BFF002002F06CFF002002F0C6
:1046100069FF002002F066FF002002F063FF002027
:1046200002F060FF002002F05DFF002002F05AFF60
:10463000002002F057FF002002F054FF002002F09B
:1046400051FF002002F04EFF002002F04BFF00203F
:1046500002F048FF002002F045FF002002F042FF78
:10466000002002F03FFFE02002F048FF162002F099
:1046700039FF002002F036FF1C2002F033FF00203B
:1046800002F030FF212002F02DFF002002F02AFF6F
:10469000362002F027FF002002F024FF462002F01F
:1046A00021FF002002F01EFF522002F01BFF00201D
:1046B00002F018FF642002F015FF002002F012FF44
:1046C0007A2002F00FFF002002F00CFF8B2002F096
:1046D00009FF002002F006FF992002F003FF0020EE
:1046E00002F000FFA82002F0FDFE002002F0FAFE1A
:1046F000B92002F0F7FE002002F0F4FEC42002F020
:10470000F1FE002002F0EEFECA2002F0EBFE0020D7
:1047100002F0E8FED22002F0E5FE002002F0E2FE08
:10472000D92002F0DFFE002002F0DCFEE02002F0E3
:10473000D9FE002002F0D6FEF32002F0D3FE0020C6
:1047400002F0D0FEE12002F0D9FE162002F0CAFEEF
:10475000002002F0C7FE1C2002F0C4FE002002F080
:10476000C1FE222002F0BEFE002002F0BBFE362079
:1047700002F0B8FE002002F0B5FE452002F0B2FEC5
:10478000002002F0AFFE522002F0ACFE002002F04A
:10479000A9FE642002F0A6FE002002F0A3FE7A200B
:1047A00002F0A0FE002002F09DFE8B2002F09AFE97
:1047B000002002F097FE992002F094FE002002F003
:1047C00091FEA82002F08EFE002002F08BFEB920A0
:1047D00002F088FE002002F085FEC42002F082FE76
:1047E000002002F07FFECA2002F07CFE002002F0D2
:1047F00079FED22002F076FE002002F073FED8206F
:1048000002F070FE002002F06DFEE02002F06AFE71
:10481000002002F067FEF32002F064FE002002F0A8
:1048200061FEE22002F06AFE052002F05BFE00203D
:1048300002F058FE0B2002F055FE002002F052FE5E
:104840001B2002F04FFE002002F04CFE342002F04C
:1048500049FE002002F046FE442002F043FE002004
:1048600002F040FE4F2002F03DFE002002F03AFE32
:10487000612002F037FE002002F034FE792002F0C1
:1048800031FE002002F02EFE882002F02BFE0020D8
:1048900002F028FE972002F025FE002002F022FE02
:1048A000A62002F01FFE002002F01CFEB72002F03E
:1048B00019FE002002F016FEC22002F013FE0020B6
:1048C00002F010FEC72002F00DFE002002F00AFEEA
:1048D000D12002F007FE002002F004FED62002F0F4
:1048E00001FE002002F0FEFDDD2002F0FBFD0020B5
:1048F00002F0F8FDF32002F0F5FD002002F0F2FDD9
:10490000E32002F0FBFD052002F0ECFD002002F0A8
:10491000E9FD0A2002F0E6FD002002F0E3FD1C2084
:1049200002F0E0FD002002F0DDFD332000E0FAE2BD
:1049300002F0D8FD002002F0D5FD442002F0D2FDA7
:10494000002002F0CFFD502002F0CCFD002002F04C
:10495000C9FD622002F0C6FD002002F0C3FD7820F0
:1049600002F0C0FD002002F0BDFD882002F0BAFD7B
:10497000002002F0B7FD972002F0B4FD002002F005
:10498000B1FDA62002F0AEFD002002F0ABFDB72085
:1049900002F0A8FD002002F0A5FDC22002F0A2FD59
:1049A000002002F09FFDC72002F09CFD002002F0D5
:1049B00099FDD12002F096FD002002F093FDD52054
:1049C00002F090FD002002F08DFDDD2002F08AFD56
:1049D000002002F087FDF32002F084FD002002F0A9
:1049E00081FDE42002F08AFD012002F07BFD002021
:1049F00002F078FD012002F075FD002002F072FD4A
:104A0000022002F06FFD002002F06CFD2A2002F06F
:104A100069FD002002F066FD3C2002F063FD0020ED
:104A200002F060FD4B2002F05DFD002002F05AFD17
:104A30005D2002F057FD002002F054FD742002F0CA
:104A400051FD002002F04EFD842002F04BFD0020BD
:104A500002F048FD932002F045FD002002F042FDE7
:104A6000A22002F03FFD002002F03CFDB32002F046
:104A700039FD002002F036FDBE2002F033FD00209B
:104A800002F030FDC42002F02DFD002002F02AFDCE
:104A9000CD2002F027FD002002F024FDD32002F0FB
:104AA00021FD002002F01EFDDD2002F01BFD002094
:104AB00002F018FDF32002F015FD002002F012FDB7
:104AC000E52002F01BFD002002F00CFD002002F0AA
:104AD00009FD002002F006FD002002F003FD022087
:104AE00002F000FD002002F0FDFC292002F0FAFC9B
:104AF000002002F0F7FC3C2002F0F4FC002002F061
:104B0000F1FC4B2002F0EEFC002002F0EBFC5D20FB
:104B100002F0E8FC002002F0E5FC742002F0E2FC68
:104B2000002002F0DFFC842002F0DCFC002002F018
:104B3000D9FC932002F0D6FC002002F0D3FCA22086
:104B400002F0D0FC002002F0CDFCB32002F0CAFC41
:104B5000002002F0C7FCBE2002F0C4FC002002F0DE
:104B6000C1FCC42002F0BEFC002002F0BBFCCD2042
:104B700002F0B8FC002002F0B5FCD32002F0B2FC39
:104B8000002002F0AFFCDC2002F0ACFC002002F0C0
:104B9000A9FCF32002F0A6FC002002F0A3FCE62012
:104BA00002F0ACFC112002F09DFC002002F09AFC07
:104BB000342002F097FC002002F094FC562002F012
:104BC00091FC002002F08EFC762002F08BFC00208D
:104BD00002F088FC772002F085FC002002F082FCC5
:104BE000662002F07FFC002002F07CFC882002F0AE
:104BF00079FC002002F076FC992002F073FC002082
:104C000002F070FCBB2002F06DFC002002F06AFC98
:104C1000992002F067FC002002F064FC662002F09C
:104C200061FC002002F05EFC552002F05BFC0020DD
:104C300002F058FC552002F055FC002002F052FC16
:104C4000452002F04FFC002002F04CFC432002F013
:104C500049FC002002F046FC442002F043FC002006
:104C600002F040FCE72002F049FC322002F03AFC5E
:104C7000002002F037FC552002F034FC002002F046
:104C800031FC762002F02EFC002002F02BFC662086
:104C900002F028FC002002F025FC672002F022FC34
:104CA000002002F01FFC672002F01CFC002002F034
:104CB00019FC872002F016FC002002F013FC99205A
:104CC00002F010FC002002F00DFCBB2002F00AFCF8
:104CD000002002F007FC992002F004FC002002F002
:104CE00001FC772002F0FEFB002002F0FBFB4420D9
:104CF00002F0F8FB002002F0F5FB562002F0F2FB78
:104D0000002002F0EFFB232002F0ECFB002002F079
:104D1000E9FB332002F0E6FB002002F0E3FB452034
:104D200002F0E0FB002002F0DDFBE82002F0E6FBF1
:104D3000002002F0D7FB002002F0D4FB992002F003
:104D4000D1FB002002F0CEFB872002F0CBFB00203D
:104D500002F0C8FB882002F0C5FB002002F0C2FB75
:104D6000772002F0BFFB002002F0BCFB662002F0BF
:104D7000B9FB002002F0B6FB882002F0B3FB002054
:104D800002F0B0FBAA2002F0ADFB002002F0AAFB6B
:104D9000BB2002F0A7FB002002F0A4FB992002F048
:104DA000A1FB002002F09EFB662002F09BFB00208E
:104DB00002F098FB552002F095FB002002F092FBD8
:104DC000552002F08FFB002002F08CFB442002F003
:104DD00089FB002002F086FB442002F083FB0020C8
:104DE00002F080FB552002F07DFB002002F07AFBF0
:104DF000E92002F083FBAA2002F074FB002002F0FD
:104E000071FB002002F06EFB002002F06BFB002023
:104E100002F074FBAA2002F065FBCF2002F06EFBCB
:104E2000002002F05FFB002002F05CFB002002F09B
:104E300059FB002002F056FB002002F053FB00203B
:104E400002F050FB002002F04DFB002002F04AFB74
:104E5000002002F047FB002002F044FB002002F09B
:104E600041FB002002F03EFB002002F03BFB002053
:104E700002F038FB002002F035FB002002F032FB8C
:104E8000002002F02FFBF02002F038FB002002F09F
:104E900029FB502002F026FB002002F023FB00201B
:104EA00002F020FB002002F01DFBF32002F026FBA5
:104EB000002002F017FBF92002F020FB062002F090
:104EC00011FB102002F00EFB292002F00BFB00204A
:104ED00002F008FB3A2002F011FB552002F002FB21
:104EE000112002F00BFB642004F0F6FA292002F0F6
:104EF00005FB352002F002FB002002F0F3FA5120FE
:104F000002F0FCFAFF2002F0EDFA532002F0F6FA6C
:104F10002C2002F0E7FA552002F0F0FA822002F08D
:104F2000E1FA2C20FEE3A0427ED14FF470435521DC
:104F3000184602F0F9FA4FF20104AA21204602F0C5
:104F4000F3FA651C5221284602F0EEFAA61C08214D
:104F5000304602F0E9FAE71C0121384602F0E4FA93
:104F60000D214FF4304002F0DFFA0D214BF2010029
:104F700002F0DAFA0D214BF2020002F0D5FA4FF4FA
:104F800036483421404602F0CFFA34214BF201601A
:104F900002F0CAFA34214BF2026002F0C5FA4FF473
:104FA000314A0D21504602F0BFFA4BF2011B0D2190
:104FB000584602F0B9FA0D214BF2021002F0B4FA91
:104FC00034214FF4374002F0AFFA34214BF2017034
:104FD00002F0AAFA34214BF2027002F0A5FA002185
:104FE0004FF4324002F0A0FA00214BF2012002F00F
:104FF0009BFA00214BF2022002F096FA24214FF492
:10500000384002F091FA24214BF6010002F08CFAAC
:1050100024214BF6020002F087FA01214FF43F40B1
:1050200002F082FA0F2100E0FEE34FF4334002F079
:105030007BFA0F214BF2013002F076FA0F214BF28E
:10504000023002F071FA34214FF4394002F06CFA68
:1050500034214BF6011002F067FA34214BF60210AE
:1050600002F062FA08214FF4354002F05DFA08219F
:105070004BF2015002F058FA08214BF2025002F0B4
:1050800053FA03214FF4424002F04EFA24214FF428
:105090003A4002F049FA24214BF6012002F044FA8A
:1050A00024214BF6022002F03FFA00214FF43C404D
:1050B00002F03AFA78214BF6014002F035FA00216D
:1050C0004BF6024002F030FA00214FF43D4002F06E
:1050D0002BFA78214BF6015002F026FA00214BF60C
:1050E000025002F021FA00214FF43E4002F01CFA77
:1050F00064214BF6016002F017FA00214FF4514091
:1051000002F012FA33214DF2011002F00DFA0021E3
:105110004DF2021002F008FA34214DF2031002F0B1
:1051200003FA00214DF2041002F0FEF93A214DF28B
:10513000051002F0F9F900214DF2061002F0F4F921
:105140004A214DF2071002F0EFF900214DF208104C
:1051500002F0EAF95C214DF2091002F0E5F90021B4
:105160004DF20A1002F0E0F981214DF20B1002F02D
:10517000DBF900214DF20C1002F0D6F9A6214DF218
:105180000D1002F0D1F900214DF20E1002F0CCF911
:10519000E5214DF20F1002F0C7F901214DF2101078
:1051A00002F0C2F913214DF2111002F0BDF90121F4
:1051B0004DF2121002F0B8F954214DF2131002F022
:1051C000B3F901214DF2141002F0AEF982214DF233
:1051D000151002F0A9F901214DF2161002F0A4F900
:1051E000CA214DF2171002F09FF902214DF218105A
:1051F00002F09AF900214DF2191002F095F90221FE
:105200004DF21A1002F090F901214DF21B1002F03C
:105210008BF902214DF21C1002F086F934214DF277
:105220001D1002F081F902214DF21E1002F07CF9EE
:1052300067214DF21F1002F077F902214DF2201084
:1052400002F072F984214DF2211002F06DF9022171
:105250004DF2221002F068F9A4214DF2231002F061
:1052600063F902214DF2241002F05EF9B7214DF2EC
:10527000251002F059F902214DF2261002F054F9DE
:10528000CF214DF2271002F04FF902214DF22810E4
:1052900002F04AF9DE214DF2291002F045F902210F
:1052A0004DF22A1002F040F9F2214DF22B1002F0DB
:1052B0003BF902214DF22C1002F036F9FE214DF29D
:1052C0002D1002F031F903214DF22E1002F02CF9CD
:1052D00010214DF22F1002F027F903214DF230106A
:1052E00002F022F933214DF2311002F01DF90321B1
:1052F0004DF2321002F018F96D214DF2331002F028
:1053000013F900214FF4524002F00EF933214DF20F
:10531000012002F009F900214DF2022002F004F907
:1053200034214DF2032002F0FFF800214DF2042059
:1053300002F0FAF83A214DF2052002F0F5F80021CA
:105340004DF2062002F0F0F84A214DF2072002F05B
:10535000EBF800214DF2082002F0E6F85C214DF256
:10536000092002F0E1F800214DF20A2002F0DCF8F9
:1053700081214DF20B2002F0D7F800214DF20C20D4
:1053800002F0D2F8A6214DF20D2002F0CDF8002156
:105390004DF20E2002F0C8F8E5214DF20F2002F088
:1053A000C3F801214DF2102002F0BEF813214DF296
:1053B000112002F0B9F801214DF2122002F0B4F8E8
:1053C00054214DF2132002F0AFF801214DF21420C8
:1053D00002F0AAF882214DF2152002F0A5F8012171
:1053E0004DF2162002F0A0F8CA214DF2172002F06B
:1053F0009BF802214DF2182002F096F800214DF2A0
:10540000192002F091F802214DF21A2002F08CF8D6
:1054100001214DF21B2002F087F802214DF21C20E1
:1054200002F082F834214DF21D2002F07DF80221B5
:105430004DF21E2002F078F867214DF21F2002F095
:1054400073F802214DF2202002F06EF884214DF213
:10545000212002F069F802214DF2222002F064F8C6
:10546000A4214DF2232002F05FF802214DF2242006
:1054700002F05AF8B7214DF2252002F055F802212A
:105480004DF2262002F050F8CF214DF2272002F0F5
:105490004BF802214DF2282002F046F8DE214DF2B1
:1054A000292002F041F802214DF22A2002F03CF8B6
:1054B000F2214DF22B2002F037F802214DF22C2080
:1054C00002F032F8FE214DF22D2002F02DF80321DA
:1054D0004DF22E2002F028F810214DF22F2002F07C
:1054E00023F803214DF2302002F01EF833214DF253
:1054F000312002F019F803214DF2322002F014F8A5
:105500006D214DF2332002F00FF800214FF453408B
:1055100002F00AF833214DF2013002F005F80021C3
:105520004DF2023002F000F834214DF2033001F068
:10553000FBFF00214DF2043001F0F6FF3A214DF25D
:10554000053001F0F1FF00214DF2063001F0ECFFD3
:105550004A214DF2073001F0E7FF00214DF20830FB
:1055600001F0E2FF5C214DF2093001F0DDFF002186
:105570004DF20A3001F0D8FF81214DF20B3001F0DD
:10558000D3FF00214DF20C3001F0CEFFA6214DF2E9
:105590000D3001F0C9FF00214DF20E3001F0C4FFC3
:1055A000E5214DF20F3001F0BFFF01214DF2103027
:1055B00001F0BAFF13214DF2113001F0B5FF0121C6
:1055C0004DF2123001F0B0FF54214DF2133001F0D2
:1055D000ABFF01214DF2143001F0A6FF82214DF204
:1055E000153001F0A1FF01214DF2163001F09CFFB2
:1055F000CA214DF2173001F097FF02214DF2183009
:1056000001F092FF00214DF2193001F08DFF0221CF
:105610004DF21A3001F088FF01214DF21B3001F0EC
:1056200083FF02214DF21C3001F07EFF34214DF248
:105630001D3001F079FF02214DF21E3001F074FFA0
:1056400067214DF21F3001F06FFF02214DF2203033
:1056500001F06AFF84214DF2213001F065FF022143
:105660004DF2223001F060FFA4214DF2233001F011
:105670005BFF02214DF2243001F056FFB7214DF2BD
:10568000253001F051FF02214DF2263001F04CFF90
:10569000CF214DF2273001F047FF02214DF2283093
:1056A00001F042FFDE214DF2293001F03DFF0221E1
:1056B0004DF22A3001F038FFF2214DF22B3001F08B
:1056C00033FF02214DF22C3001F02EFFFE214DF26E
:1056D0002D3001F029FF03214DF22E3001F024FF7F
:1056E00010214DF22F3001F01FFF03214DF2303019
:1056F00001F01AFF33214DF2313001F015FF032183
:105700004DF2323001F010FF6D214DF2333001F0D7
:105710000BFF00214FF4544001F006FF33214DF2FE
:10572000014000E07EE301F0FFFE00214DF2024067
:1057300001F0FAFE34214DF2034001F0F5FE0021A4
:105740004DF2044001F0F0FE3A214DF2054001F027
:10575000EBFE00214DF2064001F0E6FE4A214DF23B
:10576000074001F0E1FE00214DF2084001F0DCFEAF
:105770005C214DF2094001F0D7FE00214DF20A40B4
:1057800001F0D2FE81214DF20B4001F0CDFE00214F
:105790004DF20C4001F0C8FEA6214DF20D4001F083
:1057A000C3FE00214DF20E4001F0BEFEE5214DF298
:1057B0000F4001F0B9FE01214DF2104001F0B4FE9E
:1057C00013214DF2114001F0AFFE01214DF21240C4
:1057D00001F0AAFE54214DF2134001F0A5FE012173
:1057E0004DF2144001F0A0FE82214DF2154001F06F
:1057F0009BFE01214DF2164001F096FECA214DF2AA
:10580000174001F091FE02214DF2184001F08CFE8C
:1058100000214DF2194001F087FE02214DF21A409D
:1058200001F082FE012100E0FFE24DF21B4001F099
:105830007BFE02214DF21C4001F076FE34214DF238
:105840001D4001F071FE02214DF21E4001F06CFE80
:1058500067214DF21F4001F067FE02214DF220400A
:1058600001F062FE84214DF2214001F05DFE022133
:105870004DF2224001F058FEA4214DF2234001F0E8
:1058800053FE02214DF2244001F04EFEB7214DF2AD
:10589000254001F049FE02214DF2264001F044FE70
:1058A000CF214DF2274001F03FFE02214DF228406A
:1058B00001F03AFEDE214DF2294001F035FE0221D1
:1058C0004DF22A4001F030FEF2214DF22B4001F062
:1058D0002BFE02214DF22C4001F026FEFE214DF25E
:1058E0002D4001F021FE03214DF22E4001F01CFE5F
:1058F00010214DF22F4001F017FE03214DF23040F0
:1059000001F012FE33214DF2314001F00DFE032172
:105910004DF2324001F008FE6D214DF2334001F0AE
:1059200003FE00214FF4554001F0FEFD33214DF2FE
:10593000015001F0F9FD00214DF2025001F0F4FD9B
:1059400034214DF2035001F0EFFD00214DF20450DF
:1059500001F0EAFD3A214DF2055001F0E5FD00218C
:105960004DF2065001F0E0FD4A214DF2075001F0E2
:10597000DBFD00214DF2085001F0D6FD5C214DF217
:10598000095001F0D1FD00214DF20A5001F0CCFD8B
:1059900081214DF20B5001F0C7FD00214DF20C505A
:1059A00001F0C2FDA6214DF20D5001F0BDFD002118
:1059B0004DF20E5001F0B8FDE5214DF20F5001F00F
:1059C000B3FD01214DF2105001F0AEFD13214DF257
:1059D000115001F0A9FD01214DF2125001F0A4FD7A
:1059E00054214DF2135001F09FFD01214DF214504E
:1059F00001F09AFD82214DF2155001F095FD012133
:105A00004DF2165001F090FDCA214DF2175001F0F1
:105A10008BFD02214DF2185001F086FD00214DF260
:105A2000195001F081FD02214DF21A5001F07CFD68
:105A300001214DF21B5001F077FD02214DF21C5067
:105A400001F072FD34214DF21D5001F06DFD022177
:105A50004DF21E5001F068FD67214DF21F5001F01C
:105A600063FD02214DF2205001F05EFD84214DF2D4
:105A7000215001F059FD02214DF2225001F054FD58
:105A8000A4214DF2235001F04FFD02214DF224508C
:105A900001F04AFDB7214DF2255001F045FD0221EC
:105AA0004DF2265001F040FDCF214DF2275001F07C
:105AB0003BFD02214DF2285001F036FDDE214DF272
:105AC000295001F031FD02214DF22A5001F02CFD48
:105AD000F2214DF22B5001F027FD02214DF22C5006
